:100000000C942A000C94E8000C9447000C944700D0
:100010000C9447000C9447000C9447000C94470044
:100020000C94FF000C9447000C9447000C9447007C
:100030000C9447000C9447000C9447000C94470024
:100040000C9447000C9447000C9447000C94470014
:100050000C94470011241FBECFE5D4E0DEBFCDBF16
:1000600010E0A0E6B0E0ECE2F3E002C005900D92F3
:10007000A036B107D9F710E0A0E6B0E001C01D92AC
:10008000AA36B107E1F70E941A010C9494010C946E
:10009000000011BA8FEF8ABB08958BB780648BBFC5
:1000A00085B7836085BF08958EB583608EBD8FEE62
:1000B0008DBD1CBC89B7846089BF0895F89411BABE
:1000C0008FEF8ABB8BB780648BBF85B7836085BF9A
:1000D0008EB583608EBD8FEE8DBD1CBC89B78460EC
:1000E00089BF789408958830D1F1893090F48330B5
:1000F00061F1843028F4813011F1823020F521C083
:10010000853039F1853018F1863029F18730D9F5FD
:1001100024C08D3071F18E3048F48A3021F18A305C
:1001200000F18B3011F18C3071F521C08F3029F145
:100130008F3008F18D3219F18F3529F522C089EF02
:10014000089580EC089584EA089580EB089589E984
:10015000089582E9089582E8089588EF089580E877
:10016000089580E9089588E8089583E8089586EC65
:10017000089581EA089586E808958EE808958FED40
:10018000089587EF08958FEF0895DF9A20E030E01B
:1001900087FD02C0DD9801C0DD9ADE98DE9A2F5FF0
:1001A0003F4F2830310511F0880FF2CF80E090E00A
:1001B00067FD02C0DD9801C0DD9ADE98DE9A0196E7
:1001C0008830910511F0660FF3CFDF98DF9A08951C
:1001D0001F920F920FB60F9211248F939F938091CD
:1001E000640090916500019690936500809364008F
:1001F0009F918F910F900FBE0F901F9018951F9297
:100200000F920FB60F9211248F93789480E88DBDD2
:1002100080E48CBD80916500809362001092630041
:1002200010926500109264008F910F900FBE0F9096
:100230001F9018951F930E945E0011E020916200AC
:1002400030916300C90168EE73E00E948001F62FCF
:1002500060936600C90164E670E00E948001CB01F2
:100260006AE070E00E948001E82F80936700C90176
:100270006AE070E00E948001CB016AE070E00E94B9
:100280008001482F80936800C9016AE070E00E94F5
:100290008001982F80936900809161008F5F809327
:1002A0006100853010F01093610080916100823010
:1002B00081F0833018F4813001F505C0833079F086
:1002C0008430D9F412C08F2F0E947300682F81E808
:1002D00011C08E2F0E947300682F82E80BC0842FFC
:1002E0000E947300682F84E805C0892F0E94730064
:1002F000682F88E80E94C500A1CF109361009ECFAF
:10030000AA1BBB1B51E107C0AA1FBB1FA617B7073B
:1003100010F0A61BB70B881F991F5A95A9F7809557
:0C0320009095BC01CD010895F894FFCF2A
:00000001FF
